:020000040800F2
:1000000000200020CD140008D1100008D7100008EF
:10001000DD100008E3100008E910000800000000EF
:10002000000000000000000000000000EF100008C9
:10003000FB10000800000000071100081311000861
:1000400015150008151500081515000815150008E8
:1000500015150008151500081515000815150008D8
:1000600015150008151500081515000815150008C8
:1000700015150008151500081515000815150008B8
:1000800015150008151500081515000800000000DA
:10009000000000000000000000000000151500082E
:1000A0001515000815150008151500081515000888
:1000B0002111000815150008151500081515000870
:1000C00015150008000000000000000015150008CC
:1000D000151500083511000815150008151500083C
:1000E000151500081515000815150008000000007A
:1000F0000000000000000000000000000000000000
:1001000000000000000000000000000000000000EF
:10011000000000000000000015150008151500087B
:1001200000000000000000000000000000000000CF
:1001300000000000000000000000000000000000BF
:1001400000000000000000000000000000000000AF
:10015000000000000000000000000000000000009F
:10016000000000000000000000000000000000008F
:10017000000000000000000000000000000000007F
:10018000000000000000000000000000000000006F
:10019000000000000000000000000000000000005F
:1001A000000000000000000000000000000000004F
:1001B000000000000000000000000000000000003F
:1001C0000000000000000000000000005FF808F1DF
:1001D00010B5054C237833B9044B13B10448AFF381
:1001E00000800123237010BDDC010020000000000E
:1001F000D86D000808B5034B1BB103490348AFF3A2
:10020000008008BD00000000E0010020D86D00085B
:10021000034613F8012B002AFBD1181A0138704746
:1002200081F0004102E000BF83F0004330B54FEAA7
:1002300041044FEA430594EA050F08BF90EA020F14
:100240001FBF54EA000C55EA020C7FEA645C7FEAA7
:10025000655C00F0E2804FEA5454D4EB5555B8BFCA
:100260006D420CDD2C4480EA020281EA030382EA3B
:10027000000083EA010180EA020281EA0303362DCD
:1002800088BF30BD11F0004F4FEA01314FF4801CA0
:100290004CEA113102D0404261EB410113F0004FB2
:1002A0004FEA03334CEA133302D0524263EB430369
:1002B00094EA050F00F0A780A4F10104D5F1200E07
:1002C0000DDB02FA0EFC22FA05F2801841F1000162
:1002D00003FA0EF2801843FA05F359410EE0A5F136
:1002E00020050EF1200E012A03FA0EFC28BF4CF067
:1002F000020C43FA05F3C01851EBE37101F000451D
:1003000007D54FF0000EDCF1000C7EEB00006EEB29
:100310000101B1F5801F1BD3B1F5001F0CD34908B3
:100320005FEA30004FEA3C0C04F101044FEA44520A
:1003300012F5800F80F09A80BCF1004F08BF5FEA91
:10034000500C50F1000041EB045141EA050130BD71
:100350005FEA4C0C404141EB0101013C28BFB1F583
:10036000801FE9D291F0000F04BF01460020B1FACE
:1003700081F308BF2033A3F10B03B3F120020CDAA1
:100380000C3208DD02F1140CC2F10C0201FA0CF07F
:1003900021FA02F10CE002F11402D8BFC2F1200CE4
:1003A00001FA02F120FA0CFCDCBF41EA0C0190409A
:1003B000E41AA2BF01EB0451294330BD6FEA0404E3
:1003C0001F3C1CDA0C340EDC04F11404C4F12002CE
:1003D00020FA04F001FA02F340EA030021FA04F3E0
:1003E00045EA030130BDC4F10C04C4F1200220FA37
:1003F00002F001FA04F340EA0300294630BD21FA75
:1004000004F0294630BD94F0000F83F4801306BF3A
:1004100081F480110134013D4EE77FEA645C18BF2E
:100420007FEA655C29D094EA050F08BF90EA020FC5
:1004300005D054EA000C04BF1946104630BD91EABD
:10044000030F1EBF0021002030BD5FEA545C05D1C0
:100450004000494128BF41F0004130BD14F58004FF
:100460003CBF01F5801130BD01F0004545F0FE4173
:1004700041F470014FF0000030BD7FEA645C1ABFA8
:10048000194610467FEA655C1CBF0B46024650EADF
:10049000013406BF52EA033591EA030F41F400210B
:1004A00030BD00BF90F0000F04BF0021704730B591
:1004B0004FF4806404F132044FF000054FF0000166
:1004C00050E700BF90F0000F04BF0021704730B527
:1004D0004FF4806404F1320410F0004548BF4042FC
:1004E0004FF000013EE700BF42004FEAE2014FEA51
:1004F00031014FEA02701FBF12F07F4393F07F4F2C
:1005000081F06051704732F07F4208BF704793F02E
:100510007F4F04BF41F40021704730B54FF4607441
:1005200001F0004521F000411CE700BF50EA010244
:1005300008BF704730B54FF000050AE050EA0102ED
:1005400008BF704730B511F0004502D5404261EB5D
:1005500041014FF4806404F132045FEA915C3FF49E
:10056000D8AE4FF003025FEADC0C18BF03325FEA3B
:10057000DC0C18BF033202EBDC02C2F1200300FAEC
:1005800003FC20FA02F001FA03FE40EA0E0021FA11
:1005900002F11444BDE600BF70B54FF0FF0C4CF4FF
:1005A000E06C1CEA11541DBF1CEA135594EA0C0FB1
:1005B00095EA0C0F00F0DEF82C4481EA030621EAEC
:1005C0004C5123EA4C5350EA013518BF52EA033527
:1005D00041F4801143F4801338D0A0FB02CE4FF0D9
:1005E0000005E1FB02E506F00042E0FB03E54FF009
:1005F0000006E1FB03569CF0000F18BF4EF0010E01
:10060000A4F1FF04B6F5007F64F5407404D25FEAFC
:100610004E0E6D4146EB060642EAC62141EA5551AF
:100620004FEAC52040EA5E504FEACE2EB4F1FD0CF1
:1006300088BFBCF5E06F1ED8BEF1004F08BF5FEA6F
:10064000500E50F1000041EB045170BD06F0004621
:1006500046EA010140EA020081EA0301B4EB5C04CE
:10066000C2BFD4EB0C0541EA045170BD41F48011C6
:100670004FF0000E013C00F3AB8014F1360FDEBFEB
:10068000002001F0004170BDC4F10004203C35DAC7
:100690000C341BDC04F11404C4F1200500FA05F34A
:1006A00020FA04F001FA05F240EA020001F00042EB
:1006B00021F0004110EBD37021FA04F642EB060161
:1006C0005EEA430E08BF20EAD37070BDC4F10C048B
:1006D000C4F1200500FA04F320FA05F001FA04F24F
:1006E00040EA020001F0004110EBD37041F100013B
:1006F0005EEA430E08BF20EAD37070BDC4F1200546
:1007000000FA05F24EEA020E20FA04F301FA05F2AD
:1007100043EA020321FA04F001F0004121FA04F255
:1007200020EA020000EBD3705EEA430E08BF20EA25
:10073000D37070BD94F0000F0FD101F0004640005F
:1007400041EB010111F4801F08BF013CF7D041EAE1
:10075000060195F0000F18BF704703F000465200E5
:1007600043EB030313F4801F08BF013DF7D043EAB6
:100770000603704794EA0C0F0CEA135518BF95EA6C
:100780000C0F0CD050EA410618BF52EA4306D1D1F3
:1007900081EA030101F000414FF0000070BD50EA12
:1007A000410606BF1046194652EA430619D094EA9C
:1007B0000C0F02D150EA013613D195EA0C0F05D186
:1007C00052EA03361CBF104619460AD181EA0301DA
:1007D00001F0004141F0FE4141F470014FF0000092
:1007E00070BD41F0FE4141F4780170BD70B54FF02D
:1007F000FF0C4CF4E06C1CEA11541DBF1CEA1355AD
:1008000094EA0C0F95EA0C0F00F0A7F8A4EB05048E
:1008100081EA030E52EA03354FEA013100F0888085
:100820004FEA03334FF0805545EA131343EA12634E
:100830004FEA022245EA111545EA10654FEA002603
:100840000EF000419D4208BF964244F1FD0404F5BC
:10085000407402D25B084FEA3202B61A65EB030518
:100860005B084FEA32024FF480104FF4002CB6EBD5
:10087000020E75EB030E22BFB61A754640EA0C0055
:100880005B084FEA3202B6EB020E75EB030E22BF95
:10089000B61A754640EA5C005B084FEA3202B6EBD6
:1008A000020E75EB030E22BFB61A754640EA9C0095
:1008B0005B084FEA3202B6EB020E75EB030E22BF65
:1008C000B61A754640EADC0055EA060E18D04FEA23
:1008D000051545EA16754FEA06164FEAC30343EAC3
:1008E00052734FEAC2025FEA1C1CC0D111F4801F90
:1008F0000BD141EA00014FF000004FF0004CB6E789
:1009000011F4801F04BF01430020B4F1FD0C88BF27
:10091000BCF5E06F3FF6AFAEB5EB030C04BFB6EB32
:10092000020C5FEA500C50F1000041EB045170BD25
:100930000EF0004E4EEA113114EB5C04C2BFD4EB52
:100940000C0541EA045170BD41F480114FF0000ED6
:10095000013C90E645EA060E8DE60CEA135594EA52
:100960000C0F08BF95EA0C0F3FF43BAF94EA0C0F55
:100970000AD150EA01347FF434AF95EA0C0F7FF4CA
:1009800025AF104619462CE795EA0C0F06D152EA1E
:1009900003353FF4FDAE1046194622E750EA410602
:1009A00018BF52EA43067FF4C5AE50EA41047FF413
:1009B0000DAF52EA43057FF4EBAE12E74FF0FF3C78
:1009C00006E000BF4FF0010C02E000BF4FF0010C49
:1009D0004DF804CD4FEA410C7FEA6C5C4FEA430CC2
:1009E00018BF7FEA6C5C1BD001B050EA410C0CBF11
:1009F00052EA430C91EA030F02BF90EA020F002073
:100A0000704710F1000F91EA030F58BF994208BFD9
:100A100090422CBFD8176FEAE37040F00100704796
:100A20004FEA410C7FEA6C5C02D150EA013C07D1ED
:100A30004FEA430C7FEA6C5CD6D152EA033CD3D038
:100A40005DF8040B704700BF8446104662468C4632
:100A50001946634600E000BF01B5FFF7B7FF002865
:100A600048BF10F1000F01BD4DF808EDFFF7F4FF8E
:100A70000CBF012000205DF808FB00BF4DF808ED19
:100A8000FFF7EAFF34BF012000205DF808FB00BF3C
:100A90004DF808EDFFF7E0FF94BF012000205DF85E
:100AA00008FB00BF4DF808EDFFF7CEFF94BF012013
:100AB00000205DF808FB00BF4DF808EDFFF7C4FF0C
:100AC00034BF012000205DF808FB00BF4FEA410C55
:100AD0007FEA6C5C02D150EA013C0AD14FEA430C38
:100AE0007FEA6C5C02D152EA033C02D14FF0000075
:100AF00070474FF0010070474FEA410212F50012B3
:100B000015D211D56FF47873B3EB625212D94FEA54
:100B1000C12343F0004343EA505311F0004F23FA3E
:100B200002F018BF404270474FF00000704750EA93
:100B3000013005D111F0004008BF6FF00040704750
:100B40004FF00000704700BF4A0011D212F50012AA
:100B500011D20DD56FF47873B3EB62520ED44FEA15
:100B6000C12343F0004343EA505323FA02F0704795
:100B70004FF00000704750EA013002D14FF0FF30D3
:100B800070474FF00000704780B588B000AF07F1A4
:100B9000100300221A605A609A60DA602E4B9B693B
:100BA0002D4A43F0100393612B4B9B6903F0100314
:100BB000FB60FB68284B9B69274A43F02003936145
:100BC000254B9B6903F02003BB60BB68224B9B69EC
:100BD000214A43F0040393611F4B9B6903F0040314
:100BE0007B607B681C4B9B691B4A43F00803936145
:100BF000194B9B6903F008033B603B6801224FF4EB
:100C00008051164801F022F800224FF44071144838
:100C100001F01CF84FF480533B6101237B610023FA
:100C2000BB610323FB6107F1100319460B4800F079
:100C300089FE4FF440733B6101237B610023BB615C
:100C40000223FB6107F110031946054800F07AFE04
:100C500000BF2037BD4680BD00100240000C01409F
:100C60000010014080B582B000AF78607B681B68DF
:100C7000B3F1804F13D1012003F03AFB0A4B1B88DC
:100C800001339AB2084B1A80074B1B88B3F57A7F61
:100C900005D3054B00221A80044B01221A7000BFB5
:100CA0000837BD4680BD00BFFA010020F9010020D1
:100CB00080B596B000AF00F02EFC00F0C1F8FFF751
:100CC00063FF00F077FB00F04FF900F003FB002317
:100CD000A7F84A300023A7F84830F82387F84730B0
:100CE0004D4802F06BF903F029FB03F0FBF9F32107
:100CF000802000F00BF9FB1C1946022000F0E0F800
:100D0000BB1C1946012000F0DBF8FB785B08DBB266
:100D10009AB2BB789BB2DB019BB21344A7F8483070
:100D20003E4B1B78012B3FD1B7F848301846FFF7F0
:100D3000B9FB4FF000023A4BFFF72EFC02460B4680
:100D4000104619464FF00002364BFFF74FFD0246A2
:100D50000B46104619462EA3D3E90023FFF764FA89
:100D600002460B46C7E91423D7E91401FFF7ECFE4E
:100D700003469BB22C4AA2FB0323DB08A7F84E30A4
:100D8000D7E91401FFF7E0FE03469AB2264BA3FB16
:100D90000213D9080B469B000B445B00D31AA7F83B
:100DA0004C301E4B00221A70032387F846301F4B2D
:100DB0001B7899B297F8463000221D4803F0ACF931
:100DC00097F84630B7F84E1001221A4803F0A4F9FC
:100DD00097F84630B7F84C100222174803F09CF9F8
:100DE0004FF000020E4BD7E91401FFF7FFFC02465B
:100DF0000B4610461946FFF7A7FE034699B297F82F
:100E0000463003220D4803F087F974E7AFF3008002
:100E1000000000000098A24058020020F9010020C4
:100E20000000244000004040CDCCCCCCF801002094
:100E3000F06D0008006E0008086E0008106E0008D3
:100E400080B590B000AF07F11803282200211846A2
:100E500003F0ACFA3B1D00221A605A609A60DA6017
:100E60001A610223BB610123BB621023FB620223D0
:100E70007B630023BB634FF48013FB6307F118030C
:100E8000184600F0FBFE0346002B01D000F066F888
:100E90000F237B600223BB600023FB6000233B61C8
:100EA00000237B613B1D0021184601F069F90346D0
:100EB000002B01D000F052F800BF4037BD4680BD86
:100EC00080B582B000AF03463960FB7100224FF459
:100ED00080510C4800F0BAFEF91D642301220A4833
:100EE00001F034FB642301223968074801F06AFCF1
:100EF00001224FF48051034800F0A8FE00BF0837DC
:100F0000BD4680BD000C0140FC01002080B582B0D0
:100F100000AF03460A46FB711346BB7100224FF433
:100F200080510C4800F092FEF91D642301220A480A
:100F300001F00CFBB91D64230122074801F006FBF8
:100F400001224FF48051034800F080FE00BF0837B3
:100F5000BD4680BD000C0140FC01002080B400AF04
:100F600072B600BFFEE7000080B500AF174B184A0D
:100F70001A60164B4FF482725A60144B00229A602A
:100F8000124B0022DA60114B02221A610F4B012230
:100F90005A610E4B4FF400729A610C4B1822DA61C1
:100FA0000A4B00221A62094B00225A62074B0022A8
:100FB0009A62064B0A22DA62044801F04BFA0346B1
:100FC000002B01D0FFF7CAFF00BF80BDFC0100204D
:100FD0000038004080B588B000AF786007F110039A
:100FE00000221A605A609A60DA607B681B681C4AAB
:100FF000934231D11B4BDB691A4A43F48043D361DE
:10100000184BDB6903F48043FB60FB68154B9B695D
:10101000144A43F008039361124B9B6903F00803E1
:10102000BB60BB684FF420433B6102237B61032319
:10103000FB6107F1100319460B4800F083FC4FF4E5
:1010400080433B6100237B610023BB6107F11003F8
:101050001946054800F076FC00BF2037BD4680BD2C
:101060000038004000100240000C014080B485B000
:1010700000AF154B9B69144A43F001039361124B77
:101080009B6903F00103BB60BB680F4BDB690E4A31
:1010900043F08053D3610C4BDB6903F080537B60DA
:1010A0007B680A4B5B68FB60FB6823F0E063FB60D6
:1010B000FB6843F00073FB60044AFB68536000BFA9
:1010C0001437BD4680BC704700100240000001404C
:1010D00080B400AFFEE780B400AFFEE780B400AF9D
:1010E000FEE780B400AFFEE780B400AFFEE780B457
:1010F00000AF00BFBD4680BC704780B400AF00BFEA
:10110000BD4680BC704780B400AF00BFBD4680BC08
:10111000704780B500AF00F03BFA00BF80BD000013
:1011200080B500AF024801F0A3FF00BF80BD00BF43
:101130005802002080B500AF024802F095FB00BFC6
:1011400080BD00BFA002002080B400AF012318467C
:10115000BD4680BC704780B582B000AF7860396012
:1011600003F0FAF8034616221A604FF0FF331846D0
:101170000837BD4680BD80B582B000AF78604FF0C3
:10118000FF317868FFF7E7FFFEE780B586B000AF74
:10119000F860B9607A6000237B610AE0AFF30080F9
:1011A0000146BB685A1CBA60CAB21A707B69013327
:1011B0007B617A697B689A42F0DB7B681846183756
:1011C000BD4680BD80B586B000AFF860B9607A607A
:1011D00000237B6109E0BB685A1CBA601B78184683
:1011E000AFF300807B6901337B617A697B689A4247
:1011F000F1DB7B6818461837BD4680BD80B483B0EC
:1012000000AF78604FF0FF3318460C37BD4680BC06
:10121000704780B483B000AF786039603B684FF4AA
:1012200000525A60002318460C37BD4680BC7047F8
:1012300080B483B000AF7860012318460C37BD46F8
:1012400080BC704780B485B000AFF860B9607A6048
:10125000002318461437BD4680BC704780B586B061
:1012600000AF7860144A154BD31A7B617B693B61F0
:10127000134B1B68002B02D1114B124A1A60104B02
:101280001A687B6813443A699A4207D203F064F8FB
:1012900003460C221A604FF0FF3309E0084B1B682D
:1012A000FB60074B1A687B681344054A1360FB68B0
:1012B00018461837BD4680BD0020002000040000FD
:1012C000540200205006002080B400AF00BFBD468D
:1012D00080BC704780B586B000AF07F108030022DC
:1012E0001A605A609A60DA603B4600221A605A60BF
:1012F0001D4B4FF080421A601B4BEF225A601A4B75
:1013000000229A60184B6322DA60174B00221A61A0
:10131000154B00229A61144801F000FE0346002B91
:1013200001D0FFF71BFE4FF48053BB6007F10803A9
:1013300019460D4801F0A4FF0346002B01D0FFF72A
:101340000DFE00233B6000237B603B4619460648A8
:1013500002F094F90346002B01D0FFF7FFFD00BF18
:101360001837BD4680BD00BF5802002080B584B04C
:1013700000AF78607B681B68B3F1804F13D10C4BD2
:10138000DB690B4A43F00103D361094BDB6903F0CE
:101390000103FB60FB68002200211C2000F0EBF938
:1013A0001C2000F004FA00BF1037BD4680BD00BF0E
:1013B0000010024080B500AF114B124A1A60104B6A
:1013C0004FF4E1325A600E4B00229A600C4B00221F
:1013D000DA600B4B00221A61094B0C225A61084B50
:1013E00000229A61064B0022DA61054802F0BEF93C
:1013F0000346002B01D0FFF7B1FD00BF80BD00BF49
:10140000A00200200038014080B58AB000AF7860AB
:1014100007F1140300221A605A609A60DA607B6850
:101420001B68264A934245D1254B9B69244A43F4C5
:1014300080439361224B9B6903F480433B613B698A
:101440001F4B9B691E4A43F0080393611C4B9B6929
:1014500003F00803FB60FB6840237B610223BB6150
:1014600003233B6207F114031946164800F06AFA99
:1014700080237B610023BB610023FB6107F1140320
:101480001946104800F05EFA0F4B5B687B627B6A7E
:1014900043F0E0637B627B6A43F004037B620A4AA9
:1014A0007B6A536000220021252000F064F925208A
:1014B00000F07DF900BF2837BD4680BD00380140EF
:1014C00000100240000C0140000001400C480D4992
:1014D0000D4A002302E0D458C4500433C4188C428F
:1014E000F9D30A4A0A4C002301E013600432A242F5
:1014F000FBD3FFF7E9FE02F035FFFFF7D9FB70479A
:1015000000000020DC01002034720008DC01002013
:1015100050060020FEE780B500AF032000F020F960
:10152000002000F005F8FFF7A1FD0023184680BD5C
:1015300080B582B000AF7860124B1A68124B1B78EE
:1015400019464FF47A73B3FBF1F3B2FBF3F3184689
:1015500000F03BF90346002B01D001230EE07B682D
:101560000F2B0AD8002279684FF0FF3000F003F902
:10157000064A7B681360002300E001231846083701
:10158000BD4680BD000000200800002004000020AF
:1015900080B400AF054B1B781A46054B1B681344FB
:1015A000034A136000BFBD4680BC7047080000209E
:1015B000E402002080B400AF024B1B681846BD4611
:1015C00080BC7047E402002080B485B000AF786032
:1015D0007B6803F00703FB600C4BDB68BB60BA68F9
:1015E0004FF6FF031340BB60FB681A02BB6813434E
:1015F00043F0BF6343F40033BB60044ABB68D3606D
:1016000000BF1437BD4680BC704700BF00ED00E04E
:1016100080B400AF044BDB681B0A03F007031846D5
:10162000BD4680BC704700BF00ED00E080B483B0D1
:1016300000AF0346FB7197F90730002B0BDBFB79FA
:1016400003F01F02064997F907305B09012000FAF1
:1016500002F241F8232000BF0C37BD4680BC704722
:1016600000E100E080B483B000AF03463960FB7155
:1016700097F90730002B0ADB3B68DAB20C4997F97F
:1016800007301201D2B20B4483F800230AE03B6812
:10169000DAB20849FB7903F00F03043B1201D2B21E
:1016A0000B441A7600BF0C37BD4680BC704700BFA4
:1016B00000E100E000ED00E080B489B000AFF86028
:1016C000B9607A60FB6803F00703FB61FB69C3F153
:1016D0000703042B28BF0423BB61FB690433062BDB
:1016E00002D9FB69033B00E000237B614FF0FF322E
:1016F000BB6902FA03F3DA43BB681A407B699A407C
:101700004FF0FF317B6901FA03F3D9437B680B404B
:10171000134318462437BD4680BC704780B582B05D
:1017200000AF78607B68013BB3F1807F01D3012378
:101730000FE00A4A7B68013B53600F214FF0FF30F6
:10174000FFF790FF054B00229A60044B07221A60B6
:10175000002318460837BD4680BD00BF10E000E0FA
:1017600080B582B000AF78607868FFF72DFF00BFCA
:101770000837BD4680BD80B586B000AF0346B9606E
:101780007A60FB7300237B61FFF742FF78617A6820
:10179000B9687869FFF790FF024697F90F30114654
:1017A0001846FFF75FFF00BF1837BD4680BD80B504
:1017B00082B000AF0346FB7197F907301846FFF778
:1017C00035FF00BF0837BD4680BD80B582B000AF91
:1017D00078607868FFF7A2FF034618460837BD46D1
:1017E00080BD80B485B000AF78600023FB737B6858
:1017F00093F82130022B08D07B6804229A637B681F
:10180000002283F82020012320E07B681B681A68EF
:101810007B681B6822F00E021A607B681B681A68DE
:101820007B681B6822F001021A607B681A6C7B6877
:10183000DB6B012101FA02F25A607B68012283F816
:1018400021207B68002283F82020FB7B1846143778
:10185000BD4680BC7047000080B584B000AF7860A2
:101860000023FB737B6893F82130022B05D07B6843
:1018700004229A630123FB7351E07B681B681A689A
:101880007B681B6822F00E021A607B681B681A686E
:101890007B681B6822F001021A607B681B68224A81
:1018A000934229D07B681B68204A934222D07B68F0
:1018B0001B681F4A93421AD07B681B681D4A9342DB
:1018C00012D07B681B681C4A93420AD07B681B6855
:1018D0001A4A934202D14FF480130EE04FF0807306
:1018E0000BE04FF4803308E04FF4805305E04FF4F1
:1018F000807302E0102300E00123114A53607B68EB
:10190000012283F821207B68002283F820207B6855
:101910005B6B002B03D07B685B6B78689847FB7B25
:1019200018461037BD4680BD080002401C0002402A
:101930003000024044000240580002406C00024067
:101940000000024080B48BB000AF786039600023A3
:101950007B6200233B6269E101227B6A02FA03F3A6
:10196000FB613B681B68FA691340BB61BA69FB699C
:101970009A4240F058813B685B689A4A93425ED035
:10198000984A934275D8984A934258D0964A9342BF
:101990006FD8964A934252D0944A934269D8944A57
:1019A00093424CD0924A934263D8924A934246D093
:1019B000904A93425DD8122B2AD8122B59D801A2F3
:1019C00052F823F03F1A0008191A00082B1A0008D1
:1019D0006D1A0008731A0008731A0008731A0008B9
:1019E000731A0008731A0008731A0008731A0008A3
:1019F000731A0008731A0008731A0008731A000893
:101A0000731A0008731A0008211A0008351A000812
:101A1000794A934213D02CE03B68DB683B6229E0B3
:101A20003B68DB6804333B6224E03B68DB680833D7
:101A30003B621FE03B68DB680C333B621AE03B68AB
:101A40009B68002B02D104233B6213E03B689B6838
:101A5000012B05D108233B627B68FA691A6109E012
:101A600008233B627B68FA695A6103E000233B620A
:101A700000E000BFBB69FF2B01D87B6801E07B68F9
:101A800004337B61BB69FF2B02D87B6A9B0002E0B9
:101A90007B6A083B9B003B617B691A680F213B69AD
:101AA00001FA03F3DB431A40396A3B6901FA03F395
:101AB0001A437B691A603B685B6803F08053002B14
:101AC00000F0B1804D4B9B694C4A43F00103936198
:101AD0004A4B9B6903F00103BB60BB68484A7B6AC1
:101AE0009B08023352F82330FB607B6A03F0030348
:101AF0009B000F2202FA03F3DB43FA681340FB60FA
:101B00007B68404A934213D07B683F4A93420DD092
:101B10007B683E4A934207D07B683D4A934201D19D
:101B2000032306E0042304E0022302E0012300E093
:101B300000237A6A02F0030292009340FA6813438A
:101B4000FB602F497B6A9B080233FA6841F8232027
:101B50003B685B6803F48033002B06D02D4B1A687A
:101B60002C49BB6913430B6006E02A4B1A68BB691A
:101B7000DB43284913400B603B685B6803F4003388
:101B8000002B06D0234B5A682249BB6913434B6094
:101B900006E0204B5A68BB69DB431E4913404B608B
:101BA0003B685B6803F48013002B06D0194B9A68DE
:101BB0001849BB6913438B6006E0164B9A68BB69F2
:101BC000DB43144913408B603B685B6803F40013EC
:101BD000002B21D00F4BDA680E49BB691343CB6051
:101BE00021E000BF00003210000031100000221080
:101BF000000021100000121000001110001002401F
:101C00000000014000080140000C014000100140AC
:101C100000140140000401400B4BDA68BB69DB4350
:101C200009491340CB607B6A01337B623B681A68C9
:101C30007B6A22FA03F3002B7FF48EAE00BF00BF55
:101C40002C37BD4680BC70470004014080B483B08F
:101C500000AF78600B467B8013467B707B78002B4F
:101C600003D07A887B681A6103E07B881A047B685A
:101C70001A6100BF0C37BD4680BC704780B586B086
:101C800000AF78607B68002B01D1012372E27B6892
:101C90001B6803F00103002B00F08780924B5B6808
:101CA00003F00C03042B0CD08F4B5B6803F00C0388
:101CB000082B12D18C4B5B6803F48033B3F5803F63
:101CC0000BD1894B1B6803F40033002B6CD07B686D
:101CD0005B68002B68D101234CE27B685B68B3F53D
:101CE000803F06D1804B1B687F4A43F480331360EA
:101CF0002EE07B685B68002B0CD17B4B1B687A4A1B
:101D000023F480331360784B1B68774A23F48023D5
:101D100013601DE07B685B68B3F5A02F0CD1724B9C
:101D20001B68714A43F4802313606F4B1B686E4A33
:101D300043F4803313600BE06B4B1B686A4A23F457
:101D400080331360684B1B68674A23F48023136059
:101D50007B685B68002B13D0FFF72CFC386108E030
:101D6000FFF728FC02463B69D31A642B01D90323F1
:101D700000E25D4B1B6803F40033002BF0D014E04D
:101D8000FFF718FC386108E0FFF714FC02463B69D6
:101D9000D31A642B01D90323ECE1534B1B6803F4E2
:101DA0000033002BF0D100E000BF7B681B6803F01C
:101DB0000203002B63D04C4B5B6803F00C03002B39
:101DC0000BD0494B5B6803F00C03082B1CD1464B2E
:101DD0005B6803F48033002B16D1434B1B6803F080
:101DE0000203002B05D07B681B69012B01D0012366
:101DF000C0E13D4B1B6823F0F8027B685B69DB00A8
:101E0000394913430B603AE07B681B69002B20D0F3
:101E1000364B01221A60FFF7CDFB386108E0FFF76F
:101E2000C9FB02463B69D31A022B01D90323A1E166
:101E30002D4B1B6803F00203002BF0D02A4B1B68CC
:101E400023F0F8027B685B69DB00274913430B60D2
:101E500015E0264B00221A60FFF7ACFB386108E062
:101E6000FFF7A8FB02463B69D31A022B01D90323D3
:101E700080E11D4B1B6803F00203002BF0D17B684F
:101E80001B6803F00803002B3AD07B689B69002B8A
:101E900019D0174B01221A60FFF78CFB386108E05C
:101EA000FFF788FB02463B69D31A022B01D90323B3
:101EB00060E10D4B5B6A03F00203002BF0D00120C0
:101EC00000F0AAFA1CE00A4B00221A60FFF772FB2E
:101ED00038610FE0FFF76EFB02463B69D31A022B15
:101EE00008D9032346E100BF00100240000042422F
:101EF00080044242924B5B6A03F00203002BE9D15B
:101F00007B681B6803F00403002B00F0A68000230D
:101F1000FB758B4BDB6903F08053002B0DD1884B95
:101F2000DB69874A43F08053D361854BDB6903F05B
:101F30008053BB60BB680123FB75824B1B6803F4B5
:101F40008073002B18D17F4B1B687E4A43F480734B
:101F50001360FFF72FFB386108E0FFF72BFB024609
:101F60003B69D31A642B01D9032303E1754B1B682A
:101F700003F48073002BF0D07B68DB68012B06D163
:101F80006F4B1B6A6E4A43F0010313622DE07B68BE
:101F9000DB68002B0CD16A4B1B6A694A23F00103F2
:101FA0001362674B1B6A664A23F0040313621CE04A
:101FB0007B68DB68052B0CD1614B1B6A604A43F0E0
:101FC000040313625E4B1B6A5D4A43F00103136214
:101FD0000BE05B4B1B6A5A4A23F001031362584B18
:101FE0001B6A574A23F0040313627B68DB68002BEB
:101FF00015D0FFF7DFFA38610AE0FFF7DBFA024697
:102000003B69D31A41F28832934201D90323B1E0EC
:102010004B4B1B6A03F00203002BEED014E0FFF7DA
:10202000C9FA38610AE0FFF7C5FA02463B69D31ADC
:1020300041F28832934201D903239BE0404B1B6A53
:1020400003F00203002BEED1FB7D012B05D13C4BAD
:10205000DB693B4A23F08053D3617B68DB69002B4B
:1020600000F08780364B5B6803F00C03082B61D0CF
:102070007B68DB69022B46D1334B00221A60FFF7E5
:1020800099FA386108E0FFF795FA02463B69D31ADE
:10209000022B01D903236DE0294B1B6803F0007369
:1020A000002BF0D17B681B6AB3F5803F08D1244B2D
:1020B000DB6A23F00F027B689B6821491343CB62E4
:1020C0001F4B5B6823F474127B68196A7B685B6A38
:1020D0000B431B4913434B601B4B01221A60FFF754
:1020E00069FA386108E0FFF765FA02463B69D31ADE
:1020F000022B01D903233DE0114B1B6803F0007351
:10210000002BF0D035E0104B00221A60FFF752FA96
:10211000386108E0FFF74EFA02463B69D31A022BFA
:1021200001D9032326E0064B1B6803F00073002B44
:10213000F0D11EE07B68DB69012B07D1012319E098
:102140000010024000700040600042420B4B5B6890
:10215000FB60FB6803F480327B681B6A9A4206D1FD
:10216000FB6803F470127B685B6A9A4201D001231A
:1021700000E0002318461837BD4680BD001002401D
:1021800080B584B000AF786039607B68002B01D1E6
:102190000123A0E07B681B6803F00203002B20D022
:1021A0007B681B6803F00403002B05D04C4B5B6875
:1021B0004B4A43F4E06353607B681B6803F00803F9
:1021C000002B05D0464B5B68454A43F4605353608F
:1021D000434B5B6823F0F0027B689B6840491343E4
:1021E0004B607B681B6803F00103002B40D07B68C9
:1021F0005B68012B07D13A4B1B6803F40033002BBB
:1022000015D1012367E07B685B68022B07D1344B53
:102210001B6803F00073002B09D101235BE0304BF6
:102220001B6803F00203002B01D1012353E02C4B68
:102230005B6823F003027B685B68294913434B60AA
:10224000FFF7B8F9F8600AE0FFF7B4F90246FB6857
:10225000D31A41F28832934201D903233BE0204B49
:102260005B6803F00C027B685B689B009A42EBD1D1
:102270007B681B6803F00403002B08D0184B5B68D5
:1022800023F4E0627B68DB68154913434B607B688D
:102290001B6803F00803002B09D0114B5B6823F483
:1022A00060527B681B69DB000D4913434B6000F0F3
:1022B0001FF802460A4B5B681B0903F00F0309492C
:1022C000CB5C22FA03F3084A1360084B1B681846DC
:1022D000FFF72EF9002318461037BD4680BD00BF1A
:1022E00000100240386E00080000002004000020AA
:1022F00090B48EB000AF2A4B07F114040FCB84E8E2
:102300000F00284B3C1D0FCB84E80F000023FB621D
:102310000023BB6200237B6300237B6200233B63BB
:10232000214B5B68FB62FB6A03F00C03042B02D0B9
:10233000082B03D02AE01D4B3B632AE0FB6A9B0C71
:1023400003F00F0338333B4413F8243C7B62FB6AF1
:1023500003F48033002B11D0134BDB6A03F00F031F
:1023600038333B4413F8343CBB627B6A0F4A03FBAF
:1023700002F2BB6AB2FBF3F37B6304E07B6A0C4AB4
:1023800002FB03F37B637B6B3B6302E0074B3B6326
:1023900000BF3B6B18463837BD4690BC704700BF46
:1023A000186E0008286E00080010024000127A0023
:1023B00000093D0080B400AF024B1B681846BD46C3
:1023C00080BC70470000002080B500AFFFF7F2FF2F
:1023D0000246054B5B681B0A03F007030349CB5C0D
:1023E00022FA03F3184680BD00100240486E000830
:1023F00080B500AFFFF7DEFF0246054B5B68DB0AE6
:1024000003F007030349CB5C22FA03F3184680BDAF
:1024100000100240486E000880B485B000AF7860BC
:102420000A4B1B680A4AA2FB03235B0A7A6802FB79
:1024300003F3FB6000BFFB685A1EFA60002BF9D162
:1024400000BF00BF1437BD4680BC704700000020AD
:10245000D34D621080B582B000AF78607B68002BEE
:1024600001D101236EE07B685B6A002B08D17B6899
:102470005B68B3F5827F09D07B680022DA6105E0F2
:102480007B6800221A617B6800225A617B68002207
:102490009A627B6893F85130DBB2002B06D17B68DF
:1024A000002283F850207868FEF794FD7B680222B2
:1024B00083F851207B681B681A687B681B6822F0D0
:1024C00040021A607B685B6803F482727B689B68D9
:1024D00003F404431A437B68DB6803F400631A4384
:1024E0007B681B6903F002031A437B685B6903F096
:1024F00001031A437B689B6903F400731A437B68EA
:10250000DB6903F038031A437B681B6A03F080031E
:1025100042EA03017B689B6A03F400527B681B68F4
:102520000A431A607B689B691A0C7B681B6802F07F
:1025300004025A607B6800225A657B68012283F896
:102540005120002318460837BD4680BD80B588B0AD
:1025500000AFF860B9603B601346FB800023FB7757
:10256000FB6893F85030012B01D1022326E1FB6870
:10257000012283F85020FFF71DF8B861FB88FB8229
:10258000FB6893F85130DBB2012B02D00223FB77BA
:102590000BE1BB68002B02D0FB88002B02D101238A
:1025A000FB7702E1FB68032283F85120FB680022DD
:1025B0005A65FB68BA681A63FB68FA889A86FB68F2
:1025C000FA88DA86FB6800229A63FB6800229A8701
:1025D000FB680022DA87FB6800225A64FB6800224D
:1025E0001A64FB689B68B3F5004F0FD1FB681B684A
:1025F0001A68FB681B6822F040021A60FB681B68BF
:102600001A68FB681B6842F480421A60FB681B680A
:102610001B6803F04003402B07D0FB681B681A6857
:10262000FB681B6842F040021A60FB68DB68B3F588
:10263000006F4BD1FB685B68002B02D0FB8A012B3B
:102640003ED1FB681B6B1A88FB681B68DA60FB686D
:102650001B6B9A1CFB681A63FB68DB8E9BB2013B09
:102660009AB2FB68DA862BE0FB681B689B6803F074
:102670000203022B12D1FB681B6B1A88FB681B68D4
:10268000DA60FB681B6B9A1CFB681A63FB68DB8EC5
:102690009BB2013B9AB2FB68DA8611E0FEF78AFF33
:1026A0000246BB69D31A3A689A4203D83B68B3F131
:1026B000FF3F02D13B68002B02D10323FB7774E07C
:1026C000FB68DB8E9BB2002BCED14CE0FB685B68D5
:1026D000002B02D0FB8A012B40D1FB681A6BFB68F0
:1026E0001B680C3312781A70FB681B6B5A1CFB6852
:1026F0001A63FB68DB8E9BB2013B9AB2FB68DA86F9
:102700002CE0FB681B689B6803F00203022B13D1CB
:10271000FB681A6BFB681B680C3312781A70FB6835
:102720001B6B5A1CFB681A63FB68DB8E9BB2013B78
:102730009AB2FB68DA8611E0FEF73CFF0246BB69FD
:10274000D31A3A689A4203D83B68B3F1FF3F02D1EB
:102750003B68002B02D10323FB7726E0FB68DB8E6E
:102760009BB2002BCDD1BA693968F86800F0B8FB8C
:102770000346002B02D0FB6820225A65FB689B6849
:10278000002B0AD100233B61FB681B68DB683B61BF
:10279000FB681B689B683B613B69FB685B6D002BBA
:1027A00002D00123FB7700E000BFFB68012283F821
:1027B0005120FB68002283F85020FB7F1846203709
:1027C000BD4680BD80B588B002AFF860B9603B609F
:1027D0001346FB800023FB75FB685B68B3F5827FC3
:1027E00012D1FB689B68002B0ED1FB68042283F892
:1027F0005120FA883B6800931346BA68B968F868B4
:1028000000F0F1F80346EAE0FB6893F85030012B42
:1028100001D10223E3E0FB68012283F85020FEF798
:10282000C9FE3861FB6893F85130DBB2012B02D04E
:102830000223FB75CAE0BB68002B02D0FB88002B8B
:1028400002D10123FB75C1E0FB68042283F851200B
:10285000FB6800225A65FB68BA689A63FB68FA88CD
:102860009A87FB68FA88DA87FB6800221A63FB689C
:1028700000229A86FB680022DA86FB6800221A642E
:10288000FB6800225A64FB689B68B3F5004F0FD1C8
:10289000FB681B681A68FB681B6822F040021A601C
:1028A000FB681B681A68FB681B6822F480421A6088
:1028B000FB681B681B6803F04003402B07D0FB68D4
:1028C0001B681A68FB681B6842F040021A60FB68CC
:1028D000DB68002B62D12EE0FB681B689B6803F06D
:1028E0000103012B15D1FB681B6803F10C02FB6887
:1028F0009B6B1278D2B21A70FB689B6B5A1CFB68F8
:102900009A63FB68DB8F9BB2013B9AB2FB68DA8764
:1029100011E0FEF74FFE02463B69D31A3A689A422D
:1029200003D83B68B3F1FF3F02D13B68002B02D1D3
:102930000323FB754AE0FB68DB8F9BB2002BCBD1F6
:1029400031E0FB681B689B6803F00103012B13D186
:10295000FB681B68DA68FB689B6B92B21A80FB68A5
:102960009B6B9A1CFB689A63FB68DB8F9BB2013BF5
:102970009AB2FB68DA8711E0FEF71CFE02463B695B
:10298000D31A3A689A4203D83B68B3F1FF3F02D1A9
:102990003B68002B02D10323FB7517E0FB68DB8F3C
:1029A0009BB2002BCDD13A693968F86800F046FA3D
:1029B0000346002B02D0FB6820225A65FB685B6D42
:1029C000002B02D00123FB7500E000BFFB68012251
:1029D00083F85120FB68002283F85020FB7D1846C5
:1029E0001837BD4680BD80B58CB000AFF860B960C7
:1029F0007A607B800123FB62002387F82B30FB6821
:102A000093F85030012B01D102238AE1FB680122A7
:102A100083F85020FEF7CEFD7862FB6893F85130C2
:102A200087F82330FB685B68FB617B887B8397F8C2
:102A30002330012B0FD0FB69B3F5827F07D1FB68F0
:102A40009B68002B03D197F82330042B03D002237B
:102A500087F82B305BE1BB68002B05D07B68002B2F
:102A600002D07B88002B03D1012387F82B304EE165
:102A7000FB6893F85130DBB2042B03D0FB680522CE
:102A800083F85120FB6800225A65FB687A689A63D4
:102A9000FB687A88DA87FB687A889A87FB68BA6865
:102AA0001A63FB687A88DA86FB687A889A86FB68FC
:102AB00000221A64FB6800225A64FB681B681B68CA
:102AC00003F04003402B07D0FB681B681A68FB68C3
:102AD0001B6842F040021A60FB68DB68B3F5006FC8
:102AE00078D1FB685B68002B02D07B8B012B66D111
:102AF000FB681B6B1A88FB681B68DA60FB681B6B42
:102B00009A1CFB681A63FB68DB8E9BB2013B9AB28E
:102B1000FB68DA8653E0FB681B689B6803F00203DE
:102B2000022B1BD1FB68DB8E9BB2002B16D0FB6AFD
:102B3000012B13D1FB681B6B1A88FB681B68DA60DA
:102B4000FB681B6B9A1CFB681A63FB68DB8E9BB2ED
:102B5000013B9AB2FB68DA860023FB62FB681B68C4
:102B60009B6803F00103012B19D1FB68DB8F9BB23B
:102B7000002B14D0FB681B68DA68FB689B6B92B271
:102B80001A80FB689B6B9A1CFB689A63FB68DB8F5F
:102B90009BB2013B9AB2FB68DA870123FB62FEF726
:102BA00009FD02467B6AD31ABA6B9A4207D8BB6BFF
:102BB000B3F1FF3F03D0032387F82B30A7E0FB6876
:102BC000DB8E9BB2002BA6D1FB68DB8F9BB2002B68
:102BD000A1D17CE0FB685B68002B02D07B8B012BD2
:102BE0006BD1FB681A6BFB681B680C3312781A7088
:102BF000FB681B6B5A1CFB681A63FB68DB8E9BB27D
:102C0000013B9AB2FB68DA8657E0FB681B689B6859
:102C100003F00203022B1CD1FB68DB8E9BB2002B5E
:102C200017D0FB6A012B14D1FB681A6BFB681B6879
:102C30000C3312781A70FB681B6B5A1CFB681A6302
:102C4000FB68DB8E9BB2013B9AB2FB68DA860023FD
:102C5000FB62FB681B689B6803F00103012B19D121
:102C6000FB68DB8F9BB2002B14D0FB681B68DA6813
:102C7000FB689B6BD2B21A70FB689B6B5A1CFB689B
:102C80009A63FB68DB8F9BB2013B9AB2FB68DA87E1
:102C90000123FB62FEF78EFC02467B6AD31ABA6BF5
:102CA0009A4203D8BB6BB3F1FF3F02D1BB6B002B41
:102CB00003D1032387F82B3029E0FB68DB8E9BB21E
:102CC000002BA2D1FB68DB8F9BB2002B9DD17A6ACF
:102CD000B96BF86800F004F90346002B06D0012315
:102CE00087F82B30FB6820225A6510E0FB689B6850
:102CF000002B0BD100237B61FB681B68DB687B61C9
:102D0000FB681B689B687B617B6900E000BFFB6818
:102D1000012283F85120FB68002283F8502097F8A5
:102D20002B3018463037BD4680BD000080B588B0D6
:102D300000AFF860B9603B601346FB71FEF73AFCE8
:102D40000246BB6A9B1A3A681344FB61FEF732FCE9
:102D5000B861394B1B685B011B0DFA6902FB03F379
:102D60007B6154E03B68B3F1FF3F50D0FEF722FC9B
:102D70000246BB69D31AFA699A4202D9FB69002B51
:102D80003DD1FB681B685A68FB681B6822F0E002B3
:102D90005A60FB685B68B3F5827F11D1FB689B6862
:102DA000B3F5004F04D0FB689B68B3F5806F07D183
:102DB000FB681B681A68FB681B6822F040021A60F7
:102DC000FB689B6AB3F5005F0FD1FB681B681A684C
:102DD000FB681B6822F400521A60FB681B681A68C3
:102DE000FB681B6842F400521A60FB68012283F8FA
:102DF0005120FB68002283F85020032317E07B69F1
:102E0000002B01D10023FB617B69013B7B61FB68E7
:102E10001B689A68BB681340BA689A420CBF0123CA
:102E20000023DBB21A46FB799A429BD10023184655
:102E30002037BD4680BD00BF0000002080B586B0B1
:102E400002AFF860B9607A60FB685B68B3F5827FB7
:102E500011D1FB689B68B3F5004F04D0FB689B68F9
:102E6000B3F5806F07D1FB681B681A68FB681B68A5
:102E700022F040021A60FB685B68B3F5827F17D1CD
:102E8000FB689B68B3F5806F12D17B680093BB68C9
:102E900000220121F868FFF749FF0346002B1AD0F2
:102EA000FB685B6D43F02002FB685A65032313E067
:102EB0007B680093BB6800228021F868FFF736FF2B
:102EC0000346002B07D0FB685B6D43F02002FB68D4
:102ED0005A65032300E0002318461037BD4680BD25
:102EE00080B586B002AFF860B9607A607B68009305
:102EF000BB6800228021F868FFF718FF0346002B0B
:102F000007D0FB685B6D43F02002FB685A65032322
:102F100000E0002318461037BD4680BD80B582B062
:102F200000AF78607B68002B01D1012341E07B6812
:102F300093F83D30DBB2002B06D17B68002283F88A
:102F40003C207868FEF712FA7B68022283F83D2065
:102F50007B681A687B6804331946104600F078FADB
:102F60007B68012283F846207B68012283F83E209B
:102F70007B68012283F83F207B68012283F8402090
:102F80007B68012283F841207B68012283F842207C
:102F90007B68012283F843207B68012283F8442068
:102FA0007B68012283F845207B68012283F83D205D
:102FB000002318460837BD4680BD000080B485B0A8
:102FC00000AF78607B6893F83D30DBB2012B01D015
:102FD00001233FE07B68022283F83D207B681B6869
:102FE000DA687B681B6842F00102DA607B681B6864
:102FF0001B4A934213D07B681B68B3F1804F0ED0FD
:103000007B681B68174A934209D07B681B68164A85
:10301000934204D07B681B68144A934211D17B68A9
:103020001B689B6803F00703FB60FB68062B10D04E
:103030007B681B681A687B681B6842F001021A6093
:1030400007E07B681B681A687B681B6842F0010216
:103050001A60002318461437BD4680BC704700BF75
:10306000002C0140000400400008004000400140E6
:1030700080B582B000AF78607B681B681B6903F085
:103080000203022B22D17B681B68DB6803F002037A
:10309000022B1BD17B681B686FF002021A617B68F0
:1030A00001221A777B681B689B6903F00303002BDE
:1030B00003D0786800F0B1F905E0786800F0A4F971
:1030C000786800F0B3F97B6800221A777B681B6888
:1030D0001B6903F00403042B22D17B681B68DB68A7
:1030E00003F00403042B1BD17B681B686FF0040200
:1030F0001A617B6802221A777B681B689B6903F45C
:103100004073002B03D0786800F087F905E07868F9
:1031100000F07AF9786800F089F97B6800221A7764
:103120007B681B681B6903F00803082B22D17B68AE
:103130001B68DB6803F00803082B1BD17B681B6846
:103140006FF008021A617B6804221A777B681B689B
:10315000DB6903F00303002B03D0786800F05DF90E
:1031600005E0786800F050F9786800F05FF97B6856
:1031700000221A777B681B681B6903F01003102B71
:1031800022D17B681B68DB6803F01003102B1BD176
:103190007B681B686FF010021A617B6808221A773F
:1031A0007B681B68DB6903F44073002B03D07868ED
:1031B00000F033F905E0786800F026F9786800F04F
:1031C00035F97B6800221A777B681B681B6903F05E
:1031D0000103012B0ED17B681B68DB6803F0010340
:1031E000012B07D17B681B686FF001021A617868B8
:1031F000FDF738FD7B681B681B6903F08003802B9B
:103200000ED17B681B68DB6803F08003802B07D13D
:103210007B681B686FF080021A61786800F09DFA85
:103220007B681B681B6903F04003402B0ED17B6851
:103230001B68DB6803F04003402B07D17B681B68E9
:103240006FF040021A61786800F0F9F87B681B683B
:103250001B6903F02003202B0ED17B681B68DB6801
:1032600003F02003202B07D17B681B686FF020023E
:103270001A61786800F068FA00BF0837BD4680BD63
:1032800080B584B000AF786039607B6893F83C30DB
:10329000012B01D10223B3E07B68012283F83C209B
:1032A0007B68022283F83D207B681B689B68FB607B
:1032B000FB6823F07703FB60FB6823F47F43FB602C
:1032C0007B681B68FA689A603B681B68B3F5005F0F
:1032D0003ED0B3F5005F00F28780B3F5805F00F069
:1032E0008580B3F5805F7FD8702B1AD0702B7BD888
:1032F000602B50D0602B77D8502B3CD0502B73D8FC
:10330000402B58D0402B6FD8302B64D0302B6BD84B
:10331000202B60D0202B67D8002B5CD0102B5AD0EC
:1033200062E07B6818683B6899683B685A683B684C
:10333000DB6800F084F97B681B689B68FB60FB68B6
:1033400043F07703FB607B681B68FA689A604EE085
:103350007B6818683B6899683B685A683B68DB681B
:1033600000F06DF97B681B689A687B681B6842F403
:1033700080429A603BE07B6818683B6859683B680C
:10338000DB681A4600F0E4F87B681B685021184699
:1033900000F03BF92BE07B6818683B6859683B6894
:1033A000DB681A4600F002F97B681B68602118464A
:1033B00000F02BF91BE07B6818683B6859683B6894
:1033C000DB681A4600F0C4F87B681B684021184689
:1033D00000F01BF90BE07B681A683B681B68194614
:1033E000104600F012F902E000BF00E000BF7B6869
:1033F000012283F83D207B68002283F83C200023D3
:1034000018461037BD4680BD80B483B000AF7860E9
:1034100000BF0C37BD4680BC704780B483B000AF9E
:10342000786000BF0C37BD4680BC704780B483B065
:1034300000AF786000BF0C37BD4680BC704780B4D9
:1034400083B000AF786000BF0C37BD4680BC7047CA
:1034500080B485B000AF786039607B681B68FB6022
:103460007B68354A93420BD07B68B3F1804F07D01D
:103470007B68324A934203D07B68314A934208D139
:10348000FB6823F07003FB603B685B68FA681343DA
:10349000FB607B68284A934217D07B68B3F1804F6A
:1034A00013D07B68254A93420FD07B68244A93420D
:1034B0000BD07B68234A934207D07B68224A934211
:1034C00003D07B68214A934208D1FB6823F4407300
:1034D000FB603B68DB68FA681343FB60FB6823F022
:1034E00080023B685B691343FB607B68FA681A6083
:1034F0003B689A687B68DA623B681A687B689A6204
:103500007B680D4A93420BD07B680E4A934207D0EA
:103510007B680D4A934203D07B680C4A934203D1E7
:103520003B681A697B681A637B6801225A6100BF95
:103530001437BD4680BC7047002C01400004004099
:1035400000080040004001400044014000480140A4
:1035500080B487B000AFF860B9607A60FB681B6A1E
:103560007B61FB681B6A23F00102FB681A62FB683F
:103570009B693B613B6923F0F0033B617B681B0166
:103580003A6913433B617B6923F00A037B617A69E3
:10359000BB6813437B61FB683A699A61FB687A698F
:1035A0001A6200BF1C37BD4680BC704780B487B02C
:1035B00000AFF860B9607A60FB681B6A23F0100204
:1035C000FB681A62FB689B697B61FB681B6A3B6155
:1035D0007B6923F470437B617B681B037A69134327
:1035E0007B613B6923F0A0033B61BB681B013A6927
:1035F00013433B61FB687A699A61FB683A691A6216
:1036000000BF1C37BD4680BC704780B485B000AF9A
:10361000786039607B689B68FB60FB6823F070030F
:10362000FB603A68FB68134343F00703FB607B6869
:10363000FA689A6000BF1437BD4680BC704780B4FA
:1036400087B000AFF860B9607A603B60FB689B6848
:103650007B617B6923F47F437B613B681A027B6853
:103660001A43BB6813437A6913437B61FB687A6929
:103670009A6000BF1C37BD4680BC704780B485B0DF
:1036800000AF786039607B6893F83C30012B01D142
:1036900002234BE07B68012283F83C207B680222F6
:1036A00083F83D207B681B685B68FB607B681B6858
:1036B0009B68BB60FB6823F07003FB603B681B6882
:1036C000FA681343FB607B681B68FA685A607B6882
:1036D0001B68194A934213D07B681B68B3F1804F73
:1036E0000ED07B681B68154A934209D07B681B6823
:1036F000134A934204D07B681B68124A93420CD150
:10370000BB6823F08003BB603B685B68BA68134307
:10371000BB607B681B68BA689A607B68012283F88B
:103720003D207B68002283F83C2000231846143794
:10373000BD4680BC704700BF002C01400004004023
:10374000000800400040014080B483B000AF7860C2
:1037500000BF0C37BD4680BC704780B483B000AF5B
:10376000786000BF0C37BD4680BC704780B582B022
:1037700000AF78607B68002B01D101233FE07B68BC
:1037800093F83D30DBB2002B06D17B68002283F832
:103790003C207868FDF738FE7B68242283F83D20C2
:1037A0007B681B68DA687B681B6822F40052DA6069
:1037B000786800F0B3FB7B681B681A697B681B683C
:1037C00022F490421A617B681B685A697B681B6807
:1037D00022F02A025A617B681B68DA687B681B68E2
:1037E00042F40052DA607B6800221A647B6820226F
:1037F00083F83D207B68202283F83E200023184672
:103800000837BD4680BD80B584B000AFF860B960B0
:103810001346FB80FB6893F83E30DBB2202B1DD1B2
:10382000BB68002B02D0FB88002B01D1012316E0DE
:10383000FB6893F83C30012B01D102230FE0FB68B9
:10384000012283F83C20FB6800221A63FB881A4699
:10385000B968F86800F0D8F9034600E0022318467A
:103860001037BD4680BD000080B58AB000AF7860DB
:103870007B681B681B687B627B681B68DB683B623C
:103880007B681B685B69FB610023BB6100237B6174
:103890007B6A03F00F03BB61BB69002B0DD17B6A10
:1038A00003F02003002B08D03B6A03F02003002B19
:1038B00003D0786800F088FA7BE1BB69002B00F048
:1038C000B180FB6903F00103002B05D13B6A03F4CF
:1038D0009073002B00F0A6807B6A03F00103002B9D
:1038E0000AD03B6A03F48073002B05D07B681B6C05
:1038F00043F001027B681A647B6A03F00403002B27
:103900000AD0FB6903F00103002B05D07B681B6C18
:1039100043F002027B681A647B6A03F00203002B07
:103920000AD0FB6903F00103002B05D07B681B6CF8
:1039300043F004027B681A647B6A03F00803002BDF
:103940000FD03B6A03F02003002B04D1FB6903F086
:103950000103002B05D07B681B6C43F008027B68D9
:103960001A647B681B6C002B00F01E817B6A03F0DD
:103970002003002B07D03B6A03F02003002B02D06A
:10398000786800F021FA7B681B685B6903F04003EC
:10399000002B14BF01230023DBB27B617B681B6C0F
:1039A00003F00803002B02D17B69002B31D078682B
:1039B00000F063F97B681B685B6903F04003002B30
:1039C00023D07B681B685A697B681B6822F0400221
:1039D0005A617B689B6B002B13D07B689B6B764A8C
:1039E0005A637B689B6B1846FDF736FF0346002B36
:1039F00016D07B689B6B5B6B7A68926B104698471E
:103A00000EE0786800F0ECF80AE0786800F0E8F87A
:103A100006E0786800F0E4F87B6800221A64C3E0EE
:103A200000BFC1E07B681B6B012B40F0A1807B6A6B
:103A300003F01003002B00F09B803B6A03F010039F
:103A4000002B00F095800023FB607B681B681B68DF
:103A5000FB607B681B685B68FB60FB687B681B68BE
:103A60005B6903F04003002B4ED07B689B6B1B68A7
:103A70005B683B823B8A002B00F098807B689B8DC3
:103A80003A8A9A4280F092807B683A8ADA857B682B
:103A90009B6B9B69202B2BD07B681B68DA687B684B
:103AA0001B6822F48072DA607B681B685A697B6845
:103AB0001B6822F001025A617B681B685A697B68A7
:103AC0001B6822F040025A617B68202283F83E2066
:103AD0007B6800221A637B681B68DA687B681B6856
:103AE00022F01002DA607B689B6B1846FDF779FEC6
:103AF0007B689A8D7B68DB8D9BB2D31A9BB219468B
:103B0000786800F076F851E07B689A8D7B68DB8DF1
:103B10009BB2D31A7B827B68DB8D9BB2002B47D094
:103B20007B8A002B44D07B681B68DA687B681B6843
:103B300022F49072DA607B681B685A697B681B68A4
:103B400022F001025A617B68202283F83E207B68C4
:103B500000221A637B681B68DA687B681B6822F0A6
:103B60001002DA607B8A1946786800F042F81FE09C
:103B70007B6A03F08003002B08D03B6A03F08003CC
:103B8000002B03D0786800F0B8F812E07B6A03F0ED
:103B90004003002B0DD03B6A03F04003002B08D0FC
:103BA000786800F0F9F804E000BF02E000BF00E030
:103BB00000BF2837BD4680BDD33C000880B483B029
:103BC00000AF786000BF0C37BD4680BC704780B442
:103BD00083B000AF786000BF0C37BD4680BC704733
:103BE00080B483B000AF786000BF0C37BD4680BCA6
:103BF000704780B483B000AF78600B467B8000BF15
:103C00000C37BD4680BC704780B485B000AFF8600B
:103C1000B9601346FB80FB68BA689A62FB68FA8851
:103C20009A85FB68FA88DA85FB6800221A64FB68CB
:103C3000222283F83E20FB68002283F83C20FB68A8
:103C40001B68DA68FB681B6842F48072DA60FB6804
:103C50001B685A69FB681B6842F001025A61FB68E5
:103C60001B68DA68FB681B6842F02002DA600023F8
:103C700018461437BD4680BC704780B483B000AF8F
:103C800078607B681B68DA687B681B6822F4907236
:103C9000DA607B681B685A697B681B6822F0010246
:103CA0005A617B681B6B012B07D17B681B68DA6844
:103CB0007B681B6822F01002DA607B68202283F8A0
:103CC0003E207B6800221A6300BF0C37BD4680BCD3
:103CD000704780B584B000AF78607B685B6AFB603A
:103CE000FB680022DA85FB680022DA84F868FFF7B7
:103CF00077FF00BF1037BD4680BD80B485B000AFF0
:103D000078607B6893F83D30DBB2212B3ED17B6835
:103D10009B68B3F5805F14D17B681B69002B10D1C1
:103D20007B681B6AFB60FB681B881A467B681B6804
:103D3000C2F308025A607B681B6A9A1C7B681A628D
:103D400008E07B681B6A591C7A6811621A787B68E4
:103D50001B685A607B68DB8C9BB2013B9BB27A6824
:103D60001946D184002B0FD17B681B68DA687B6809
:103D70001B6822F08002DA607B681B68DA687B6867
:103D80001B6842F04002DA60002300E0022318467C
:103D90001437BD4680BC704780B582B000AF7860F4
:103DA0007B681B68DA687B681B6822F04002DA6077
:103DB0007B68202283F83D207868FFF7FFFE002310
:103DC00018460837BD4680BD80B586B000AF786024
:103DD0007B6893F83E30DBB2222B40F099807B6801
:103DE0009B68B3F5805F17D17B681B69002B13D1EB
:103DF00000237B617B689B6A3B617B681B685B6817
:103E00009BB2C3F308039AB23B691A807B689B6A32
:103E10009A1C7B689A6226E07B689B6A7B61002320
:103E20003B617B689B68B3F5805F07D07B689B68CC
:103E3000002B0AD17B681B69002B06D17B681B68AD
:103E40005B68DAB27B691A7008E07B681B685B68A4
:103E5000DBB203F07F03DAB27B691A707B689B6A7E
:103E60005A1C7B689A627B68DB8D9BB2013B9BB2DC
:103E70007A681946D185002B48D17B681B68DA68BF
:103E80007B681B6822F02002DA607B681B68DA68B6
:103E90007B681B6822F48072DA607B681B685A6951
:103EA0007B681B6822F001025A617B68202283F83C
:103EB0003E207B681B6B012B23D17B6800221A6399
:103EC0007B681B68DA687B681B6822F01002DA6086
:103ED0007B681B681B6803F01003102B0AD10023BA
:103EE000FB607B681B681B68FB607B681B685B680A
:103EF000FB60FB687B689B8D19467868FFF779FE4D
:103F000002E07868FFF763FE002302E0002300E090
:103F1000022318461837BD4680BD000080B584B026
:103F200000AF78607B681B681B6923F440517B6895
:103F3000DA687B681B680A431A617B689A687B6849
:103F40001B691A437B685B691A437B68DB6913430F
:103F5000BB607B681B68DB6823F4164323F00C030B
:103F60007A681268B9680B43D3607B681B685B6929
:103F700023F440717B689A697B681B680A435A6125
:103F80007B681B68554A934203D1FEF731FAF8600B
:103F900002E0FEF719FAF8607B68DB69B3F5004FC1
:103FA0004CD1FA6813469B0013449A001A447B686C
:103FB0005B685B00B2FBF3F3494AA2FB03235B0996
:103FC0001901FA6813469B0013449A001A447B684F
:103FD0005B685B00B2FBF3F2414BA3FB02035B099E
:103FE000642000FB03F3D31ADB0032333C4AA2FB0C
:103FF00003235B095B0003F4F8731944FA68134662
:104000009B0013449A001A447B685B685B00B2FB18
:10401000F3F2334BA3FB02035B09642000FB03F3C1
:10402000D31ADB0032332E4AA2FB03235B0903F0D1
:1040300007027B681B680A449A604AE0FA681346E4
:104040009B0013449A001A447B685B689B00B2FB98
:10405000F3F3234AA2FB03235B091901FA68134611
:104060009B0013449A001A447B685B689B00B2FB78
:10407000F3F21B4BA3FB02035B09642000FB03F379
:10408000D31A1B013233164AA2FB03235B0903F048
:10409000F0031944FA6813469B0013449A001A442B
:1040A0007B685B689B00B2FBF3F20D4BA3FB020342
:1040B0005B09642000FB03F3D31A1B013233084A67
:1040C000A2FB03235B0903F00F027B681B680A4411
:1040D0009A6000BF1037BD4680BD00BF0038014068
:1040E0001F85EB5180B500AF012203490348FFF75C
:1040F0008AFB00BF80BD00BF0E060020A00200208A
:1041000080B400AF034B00221A7100BFBD4680BCD3
:10411000704700BF1006002080B582B000AF786005
:10412000084611461A4603467B800B467B701346B1
:104130003B706A4A3B785371684B5B787A789A4255
:1041400040F0C780664B1B6803F04003002B00F073
:10415000BA80FFF7D5FF614B1B78002B1DD15F4B59
:10416000DB781A467B6813441A785D4B5A605B4BC8
:10417000DB780133DAB2594BDA70584BDB781A46E8
:104180007B6813441B78002B40F09D80534B1B78B9
:104190000133DAB2514B1A7095E0504B1B78012B6A
:1041A00015D17B884F4AA2FB03239B099AB24E4B41
:1041B000A3FB0213D9080B469B000B445B00D31AE8
:1041C0009BB2DBB243F03003DAB2444B9A70434BFC
:1041D0001B78022B15D17B88444AA2FB03235B0981
:1041E0009AB2414BA3FB0213D9080B469B000B4428
:1041F0005B00D31A9BB2DBB243F03003DAB2374B29
:104200009A70364B1B78032B15D17B88364AA2FB5C
:104210000323DB089AB2344BA3FB0213D9080B46E5
:104220009B000B445B00D31A9BB2DBB243F030031C
:10423000DAB22A4B9A70294B1B78042B10D17A885A
:10424000294BA3FB0213D9080B469B000B445B00D0
:10425000D31A9BB2DBB243F03003DAB21F4B9A7031
:104260001E4B1B78042B02D91C4BFF229A701B4B50
:104270001B780133DAB2194B1A70184B1B783C2BA0
:1042800019D9164B00221A70144B0022DA70134B06
:104290005B780133DAB2114B5A707B780F4A5B00BE
:1042A00013447A88DA800D4B5B783A789A4202D2CE
:1042B0000A4B00225A70094B1B78072B03D8074B77
:1042C0009A78074B5A60064BDB68054A43F0400377
:1042D000D36000BF0837BD4680BD00BF1006002078
:1042E00000380140D34D6210CDCCCCCC1F85EB51B2
:1042F00080B483B000AF0346FB710F4B1B790133D1
:10430000DAB20D4B1A710C4B1B79FA799A420ED224
:10431000094B5B780133DAB2074B5A70064B5A7877
:10432000054B5B799A4202D9034B00225A7000BFB9
:104330000C37BD4680BC70471006002080B400AF2B
:10434000044BDB68034A43F04003D36000BFBD4623
:1043500080BC704700380140014B1868704700BFAF
:104360000C00002070B500260C4D0D4C641BA410F1
:10437000A64209D102F030FD00260A4D0A4C641B0A
:10438000A410A64205D170BD55F8043B98470136EC
:10439000EEE755F8043B98470136F2E72C72000827
:1043A0002C7200082C720008307200080346024488
:1043B000934200D1704703F8011BF9E7002B2DE968
:1043C000F0471F46BBBF03F100431F4600232D23C8
:1043D00088B01446129A109D1370149BDDF84CA0FF
:1043E00023F02008B8F1460F05D0B8F1450F00D1F1
:1043F0000135022300E0032307AA049206AACDE9AF
:1044000002A2CDE9003522463B4600F0C5FCB8F1DA
:10441000470F064602D1119BDB0722D5B8F1460FA4
:1044200006EB050910D13378302B0AD10022002386
:1044300020463946FCF718FB18B9C5F10105CAF842
:104440000050DAF800309944002200232046394613
:10445000FCF70AFB08B1CDF81C903022079B4B45B6
:1044600007D33046079B159A9B1B136008B0BDE825
:10447000F087591C07911A70F0E70346F7B5002939
:1044800003F8022BB6BF2D222B2249420929427084
:104490002BDD0DF10704A4460A2791FBF7F60A4627
:1044A000A64607FB1615632A05F13005314604F1CF
:1044B000FF340EF8015CF0DC3031AEF1020504F897
:1044C000011C2946441C61450AD30DF10902A2EBE7
:1044D0000E02654588BF00221344181A03B0F0BDD0
:1044E00011F8012B04F8012FEDE7302330318370F0
:1044F000C170031DF1E700002DE9F04F91B00C46AB
:10450000DDF8688016461F46054601F033FA036859
:1045100018460993FBF77CFE00230E93D8F8003071
:104520000A90073323F0070303F1080294F8189068
:10453000D4F800B0C8F80020D3E90023C4E912235E
:10454000D4E9128A2AF000430B934FF0FF32404621
:104550009C4B0B99FCF7BAFA70BB4FF0FF32404608
:10456000984B0B99FCF794FA30BB0022002340468D
:104570005146FCF783FA10B12D2384F84330924B57
:104580009248B9F1470F94BF9846804603234FF0F5
:10459000000A23612BF0040323603346214628469A
:1045A00000970FAA00F0D4F9013040F090804FF04E
:1045B000FF3011B0BDE8F08F4246534640465146A9
:1045C000FCF784FA48B1BAF1000FB8BF2D23804838
:1045D000B8BF84F843307F4BD3E7636809F0DF014D
:1045E0005A1C42D106236360002206920EAACDE92E
:1045F00004920DAA4BF4806303920DF13302CDE9CE
:1046000001322360636842460093284653460B916B
:10461000FFF7D4FE0B99804647290D9908D1C81C95
:1046200002DB6368994240DDA9F102095FFA89F96A
:10463000B9F1650F1FD84A46013904F150000D91B8
:10464000FFF71BFF0E9A82461318012A236102DC32
:104650002268D20701D5013323619DF83330002B46
:104660009BD02D2384F8433097E74729BCD1002BFA
:10467000BAD10123B7E7B9F1660F18D100296368F1
:104680000BDD216113B92268D00702D501330B4439
:1046900023614FF0000AA165DFE713B92268D20752
:1046A00001D50233F4E70123F2E74FF067090E9BCF
:1046B000994205DB23682161D807EAD54B1CE7E75F
:1046C0000029CCBF0122C1F102021344E0E72368B4
:1046D0005A0507D42369424631462846B847013077
:1046E0002BD164E7B9F1650F40F2DD80D4E9120106
:1046F00000220023FCF7B8F9002833D0012331460B
:104700002846354AB84701303FF451AFDDE90D2363
:104710009A4202DB2368D8070FD5DDE90923314629
:104720002846B84701303FF442AF4FF0000804F18B
:104730001A090E9B013B434509DC23689B0700F1E6
:104740000281E0680F9B9842B8BF184631E7012309
:104750004A4631462846B84701303FF428AF08F1B1
:104760000108E6E70D9B002B38DC01233146284683
:10477000194AB84701303FF41AAFDDE90D2313435E
:1047800002D12368D907D8D5DDE909233146284667
:10479000B84701303FF40BAF4FF0000904F11A0A9B
:1047A0000D9B5B424B4501DC0E9B94E70123524677
:1047B00031462846B84701303FF4F9AE09F1010906
:1047C000EEE700BFFFFFEF7F546E0008586E000851
:1047D000606E00085C6E0008646E00080E9AA36D9F
:1047E0009A42A8BF1A46002A914637DC4FF0000BC8
:1047F00029EAE97904F11A02D4F858A0AAEB0903CE
:104800005B4533DCDDE90D239A423BDB2368DA07A5
:1048100038D40E9B0D99A3EB0A02A3EB0109914535
:10482000A8BF9146B9F1000F34DC4FF0000829EA27
:10483000E97904F11A0ADDE90D239B1AA3EB0903B8
:1048400043457FF77AAF0123524631462846B847A1
:1048500001303FF4ACAE08F10108ECE713463146F5
:1048600042462846B8470130C0D1A0E60123314670
:1048700028460B92B84701303FF499AE0B9A0BF1E2
:10488000010BB9E73146DDE909232846B847013075
:10489000BFD18CE64B463146284608EB0A02B847A2
:1048A0000130C2D183E60E9A012A01DCDB0737D53D
:1048B0000123424631462846B84701303FF477AEDF
:1048C000DDE9092331462846B84701303FF46FAE91
:1048D000D4E9120100220023FCF7C6F8D8B90E9BD8
:1048E00008F10102013B31462846B84701300ED19C
:1048F0005DE601234A4631462846B84701303FF479
:1049000056AE08F101080E9B013B4345F1DC5346CE
:1049100004F15002E0E64FF0000804F11A09F2E752
:1049200001234246DFE701234A4631462846B8477D
:1049300001303FF43CAE08F10108E3680F995B1ABF
:104940004345F0DCFDE64FF0000804F11909F4E7F7
:104950002DE9F047164699468A680B690746934247
:10496000B8BF1346336091F843200C46DDF8208031
:104970000AB1013333602368990642BF33680233BA
:104980003360256815F0060506D104F1190AE368BD
:1049900032689B1AAB4228DC94F84320131E22682D
:1049A00018BF012392062DD44946384604F143022C
:1049B000C047013020D02368E56803F00603042BCC
:1049C00018BF002532684FF00006A36808BFAD1A73
:1049D000226908BF25EAE5759342C4BF9B1AED180A
:1049E0001A34B5421AD1002008E001235246494644
:1049F0003846C047013003D14FF0FF30BDE8F087A3
:104A00000135C4E73020E11881F843005A1C94F8BE
:104A100045102244023382F84310C5E701232246A1
:104A200049463846C0470130E6D00136D9E7000094
:104A30002DE9FF470F7E9146782F80460C469A4617
:104A40000C9D01F1430207D8622F0AD8002F00F015
:104A5000D980582F00F0A48004F1420584F84270F8
:104A60003AE0A7F16303152BF6D801A151F823F022
:104A7000C94A0008DD4A0008594A0008594A000896
:104A8000594A0008594A0008DD4A0008594A0008F6
:104A9000594A0008594A0008594A0008EB4B0008D7
:104AA0000D4B0008CD4B0008594A0008594A000830
:104AB0000D4C0008594A00080D4B0008594A0008DF
:104AC000594A0008D54B00082B681A1D1B682A603C
:104AD00004F1420584F842300123A4E020682968EB
:104AE000060601F104030AD50E682B60002E03DAD6
:104AF0002D23764284F843300A235E4819E00E687D
:104B000010F0400F2B6018BF36B2EFE72B6820681B
:104B1000191D2960010601D51E6802E04606FBD575
:104B20001E886F2F0CBF08230A235248002184F8E7
:104B300043106568002DA8BF2168A560A4BF21F0BF
:104B4000040121600EB9002D4DD01546B6FBF3F1DE
:104B500003FB1167C75D05F8017D3746BB420E4672
:104B6000F4D9082B0BD12368DE0708D523696168C7
:104B70009942DEBF302305F8013C05F1FF35521B99
:104B800022614B4621464046CDF800A003AAFFF71C
:104B9000DFFE01304CD14FF0FF3004B0BDE8F087AC
:104BA000344881F845702968236851F8046B2960FE
:104BB0001D0614D5DF0744BF43F0200323601EB950
:104BC000236823F0200323601023AFE7236843F01A
:104BD000200323607823284884F84530E3E759060A
:104BE00048BFB6B2E6E71546BBE72B682668181D36
:104BF0006169286035061B6801D5196002E07006FE
:104C0000FBD51980002315462361BAE72B680021E4
:104C10001A1D2A601D686268284600F0B7FE08B1B8
:104C2000401B606063682361002384F84330A8E779
:104C30002A46494640462369D0470130ABD0236815
:104C40009B0713D4E068039B9842B8BF1846A4E7BB
:104C50000123324649464046D04701309BD00135BA
:104C6000E36803995B1AAB42F2DCEBE7002504F141
:104C70001906F5E7666E0008776E00082DE9F74F14
:104C800003690C690746A342C0F28280013C00F12F
:104C9000140501F1140805EB8403019358F824303E
:104CA00055F8242001339A42B2FBF3F64FEA840B05
:104CB00008EB840931D34FF0000E4046AC46F24673
:104CC00050F8042B93B206FB03E3120C4FEA134E89
:104CD0009BB206FB02E2AAEB0303DCF800A04FEA5A
:104CE000124E1FFA8AFA5344DCF800A092B2C2EBCB
:104CF0001A4202EB23429BB243EA024381454FEA48
:104D0000224A4CF8043BDBD255F80B302BB9019BFF
:104D1000043B9D421A462FD33C61384601F0D0F83F
:104D2000002825DB28464FF0000C013658F8041BFC
:104D3000D0F800E08BB2ACEB03031FFA8EF2134401
:104D40000A0CC2EB1E4202EB23429BB243EA02432F
:104D5000C1454FEA224C40F8043BE7D255F82420E5
:104D600005EB840322B9043B9D421A460AD33C61F9
:104D7000304603B0BDE8F08F1268043B002ACBD167
:104D8000013CC6E71268043B002AF0D1013CEBE786
:104D90000020EEE7000000002DE9F04F16461F4608
:104DA000446A99B00546CDE90467DDF8948074B98A
:104DB000102000F0E3FD0246686220B9EA21A84B0A
:104DC000A84801F081FAC0E901440460C4606B6A3C
:104DD000196851B15A68012393404A608B60284694
:104DE00000F030FE00226B6A1A603B1EAFBF00234A
:104DF000012223F000430593A8BFC8F80030DDF876
:104E00001490994BB8BFC8F8002033EA090319D1B0
:104E100042F20F73249A1360C9F31303334300F073
:104E20007F85269B53B9914B22E0914B0393083326
:104E3000269A1360039819B0BDE8F08F8B4B03934B
:104E40000333F5E7DDE90434CDE90C34DDE90C0189
:104E500000220023FBF708FE804658B10123249A64
:104E60001360269B002B00F0588582481860431E73
:104E70000393DFE716AB019317AB00932846DDE9F8
:104E80000C2301F0C5F8C9F30A548346002C7FD0E7
:104E9000DDE90C010D9BA4F2FF34C3F3130343F0CF
:104EA0007F5141F44011CDF84C800022724BFBF74A
:104EB000BBF965A3D3E90023FBF76EFB64A3D3E939
:104EC0000023FBF7B3F9064620460F46FBF7FAFA34
:104ED00061A3D3E90023FBF75FFB02460B46304694
:104EE0003946FBF7A3F906460F46FBF705FE0022FD
:104EF0008246002330463946FBF7C0FD48B1504694
:104F0000FBF7E0FA32463B46FBF7AEFD08B90AF183
:104F1000FF3ABAF1160F58D8DDE90C01574B03EBF5
:104F2000CA03D3E90023FBF7A9FD00284FD00023D3
:104F30000AF1FF3A0F93169B1C1B631E099349BF8E
:104F4000C4F1010300230693002354BF0693099381
:104F5000BAF1000F3DDB099BCDF838A0534409930B
:104F600000230A93229B092B00F28C80052BC4BFDF
:104F7000043B2293229BC8BF0024A3F10203D8BFA5
:104F80000124032B00F28A80DFE803F02D4F4D5BF4
:104F9000DDE916431C4404F23243202BC3BFC3F1A6
:104FA000400304F2124009FA03F3C3F12003C6BF21
:104FB00026FA00F0184306FA03F0FBF773FA012310
:104FC000A1F1F871013C13936FE70123B2E70F9051
:104FD000B1E7069BA3EB0A030693CAF100030A9309
:104FE00000230E93BEE700230B93239B002B58DC7A
:104FF0004FF001094B46CDF82090CDF88C9000225F
:10500000686A4260042202F114069E4241684ED949
:10501000284600F0D7FC039000284CD102464FF4FC
:10502000D571174BCCE60123DEE700230B93239BBE
:105030000AEB030909F10103012B0893B8BF01230F
:10504000DDE70123F2E700BF61436F63A787D23F2B
:10505000B3C8608B288AC63FFB799F501344D33F67
:10506000956E0008AC6E00080000F07F916E00089D
:10507000886E0008656E00080000F83FA06F000809
:10508000076F0008012400230B9422934FF0FF398F
:1050900000221223CDF820902392B0E701230B9336
:1050A000F4E7DDF88C904B46CDF82090A7E701316E
:1050B00041605200A7E76B6A039A1A60089B0E2BA7
:1050C00000F2A880002C00F0A580BAF1000F34DDBA
:1050D0009A4A0AF00F0302EBC3031AF4807FD3E964
:1050E0000034CDE910344FEA2A1416D0DDE90C0162
:1050F000934B0327D3E90823FBF778FBCDE90401A1
:1051000004F00F048E4E54B9DDE91023DDE90401EB
:10511000FBF76CFBCDE9040129E00227F2E7E10788
:1051200008D5DDE91001D6E90023FBF735FACDE912
:105130001001013764100836E5E700F0A580DDE9CD
:105140000C01CAF100047D4B04F00F0203EBC20313
:10515000D3E90023FBF720FA02270023CDE904015D
:10516000774E2411002C40F08480002BD2D10F9B6D
:10517000002B00F08B80DDE90434CDE91034DDE94B
:10518000100100226F4BFBF779FC00287ED0089BB2
:10519000002B7BD0B9F1000F38DDDDE910010022D2
:1051A000694BFBF7F9F94C46CDE904010AF1FF38E8
:1051B00001373846FBF786F9DDE90423FBF7ECF904
:1051C0000022624BFBF732F8A1F15076CDE91001D5
:1051D0001196002C5DD1DDE9040100225C4BFBF748
:1051E00023F802460B46CDE904233346109AFBF719
:1051F00063FC002840F09C82DDE90401109A06F16E
:105200000043FBF73BFC002840F09082DDE90C34C2
:10521000CDE90434179B002BC0F25281BAF10E0F76
:1052200000F34E81454B03EBCA03D3E90034CDE9CB
:105230000634239B002B80F2DB80089B002B00F3BD
:10524000D78040F07282DDE906010022404BFBF777
:10525000A3F9DDE90423FBF725FC089C264600287A
:1052600040F048823123039F0AF1010A07F8013B0D
:1052700044E2E20705D5D6E90023FBF78DF90123C7
:105280000137641008366DE7022770E7D046089CA6
:105290008FE70399294B214412910B9903EBC40327
:1052A000DDE9106753E90223002955D00020294980
:1052B000FBF79CFA3B463246FAF7B6FFCDE9100100
:1052C000039FDDE90401FBF717FC0446FBF7FAF83E
:1052D00002460B46DDE90401FAF7A6FF02460B463B
:1052E0003034CDE90423DDE9102307F8014BFBF747
:1052F000C5FB002874D1DDE9042300201149FAF729
:1053000093FFDDE91023FBF7B9FB002840F0B780DD
:10531000129B9F423FF47AAFDDE9100100220A4B55
:10532000FBF73AF90022CDE91001DDE90401064B53
:10533000FBF732F9CDE90401C3E700BFA06F000815
:10534000786F00080000F03F0000244000001C407F
:10535000000014400000E03F30463946FBF71CF9DE
:10536000129BCDE91001039C1493DDE90401FBF7C6
:10537000C3FB1590FBF7A6F802460B46DDE90401D6
:10538000FAF752FF159B0646303304F8013B129B97
:105390000F469C424FF0000224D1DDE91001B04BD2
:1053A000FAF744FF02460B4630463946FBF784FBCA
:1053B000002863D1DDE910230020A949FAF734FF62
:1053C00002460B4630463946FBF758FB00283FF4AF
:1053D0001DAF149F7B1E149317F8013C302BF8D09F
:1053E000C2463BE09F4BFBF7D7F8CDE90401BCE791
:1053F000039FDDE90489DDE9062340464946FBF7C2
:10540000F5F9FBF779FB0446FBF75CF8DDE90623C9
:10541000FBF7C2F802460B4640464946FAF704FF3E
:1054200004F1300607F8016B039EDDF820C0BE1BB7
:10543000B44502460B4636D1FAF7F8FEDDE90623FD
:1054400080468946FBF738FB58BBDDE9062340461A
:105450004946FBF709FB08B1E10722D42846594623
:1054600000F0F0FA00233B70249B0AF10100186061
:10547000269B002B3FF4DEAC1F60DBE427463B4657
:105480001F4613F8012D392A07D1039A9A42F7D102
:105490003022039908F101080A701A7801321A7053
:1054A0009EE7D046EBE700226E4BFBF775F8002233
:1054B000002380468946FBF7D7FA00289BD0CDE72A
:1054C0000B9A002A00F0D080229A012A00F3AE80C5
:1054D000139A002A00F0A68003F233430A9C069F29
:1054E000069A01211A440692099A28461A440992FA
:1054F00000F05EFB0646002F0CDD099B002B09DD4A
:10550000BB42A8BF3B46069AFF1AD21A0692099AD6
:10551000D31A09930A9BF3B10B9B002B00F0A880D0
:10552000002C10DD31462246284600F0FFFB5A468B
:1055300001460646284600F051FB8046594628465B
:1055400000F080FAC3460A9B1A1B04D0594628462D
:1055500000F0ECFB83460121284600F029FB0E9B5E
:105560000446002B40F386801A460146284600F088
:10557000DDFB229B0446012B7FDD4FF000082369F1
:1055800004EB8303186900F0C5FAC0F12000099B01
:10559000184410F01F0000F09280C0F12003042B8B
:1055A00040F38A80C0F11C00069B07440344069325
:1055B000099B03440993069B002B05DD59461A46B7
:1055C000284600F00DFC8346099B002B05DD214693
:1055D0001A46284600F004FC04460F9B002B70D0AE
:1055E0002146584600F06CFC00286ADA0023594630
:1055F0000A22284600F048FA0B9B83460AF1FF3A3C
:10560000002B00F09481314600230A22284600F046
:105610003BFAB9F1000F064600F39380229B022B60
:1056200057DC8EE0169BC3F1360357E7089B5C1EE0
:105630000A9BA342B7BF0A9B1C1BE21A0E9BBEBF6C
:105640000A949B180E93089BB8BF0024002BBBBF85
:10565000069B089A069F9F1AACBF089B00233FE752
:105660000000E03F000024400A9C069F0B9E42E79A
:105670000A9A6BE7229B012B19DC049BBBB9059BA3
:10568000C3F313039BB9059B23F000431B0D1B05BC
:1056900083B14FF00108069B01330693099B013348
:1056A00009930E9B002B7FF46AAF01206FE74FF048
:1056B0000008F6E79846F4E73FF47DAF18461C3043
:1056C00072E7089B002B36DC229B022B33DDDDF8D2
:1056D0002090B9F1000F0DD121464B4605222846F6
:1056E00000F0D2F901460446584600F0E9FB0028D4
:1056F0003FF7B8AD239B039F6FEA030A4FF0000802
:105700002146284600F09EF9002E3FF4A7AEB8F1DE
:10571000000F05D0B04503D04146284600F092F96D
:105720003146284600F08EF998E600242646E1E747
:10573000C246264696E50B9BDDF82090002B00F034
:10574000FD80002F05DD31463A46284600F048FB33
:105750000646B8F1000F5CD02846716800F032F9B7
:10576000074628B9024640F2EA217F4BFFF728BBE3
:10577000326906F10C01023292000C3000F014F98B
:1057800001223946284600F02BFBB0460646039B13
:1057900001330893039B4B440A93049B03F00103DA
:1057A0000993089B2146013B58460493FFF766FA8C
:1057B000034641463033069058460B9300F080FB79
:1057C000324681462146284600F096FBC2680746CD
:1057D0000B9B02BB0146584600F072FB02460B9B36
:1057E00039462846CDE90B3200F02CF9229B0C9A61
:1057F000089F43EA0201099B0B430B9B0DD1392BF8
:1058000029D0B9F1000F01DD069B3133049A1370E2
:1058100076E73046B9E70122E2E7B9F1000F06DB8F
:10582000229941EA0909099959EA010120D1002A7E
:10583000ECDD594601222846089300F0D1FA2146B2
:10584000834600F03DFB0028089B02DCDED1DA072E
:10585000DCD5392BD8D13923049A13703B461F4627
:1058600017F8012C013B392A50D001321A7047E752
:10587000002A03DD392BEED00133C7E7089A0A99D5
:1058800002F8013C8A422AD0594600230A222846BF
:1058900000F0FAF8B04583464FF000034FF00A02DB
:1058A0004146284607D100F0EFF880460646089B9F
:1058B0000133089375E700F0E7F83146804600238E
:1058C0000A22284600F0E0F80646F0E7B9F1000F9A
:1058D000CCBF4F4601274FF00008039A17445946A2
:1058E00001222846089300F07BFA2146834600F007
:1058F000E7FA0028B2DC02D1089BDB07AED43B46B6
:105900001F4613F8012D302AFAD0F9E6039A9A427D
:10591000A5D131230AF1010A79E7144BFFF7A8BAA0
:10592000269B002B7FF481AA114BFFF7A1BAB9F196
:10593000000F03DC229B022B3FF7CBAE039F2146D7
:105940005846FFF79BF9039A00F1300307F8013B33
:10595000BA1A9145BADD594600230A22284600F0BA
:1059600093F88346EBE700BF076F0008646E0008FA
:10597000886E00080048704760010020024B014615
:10598000186800F01DBC00BF0C000020034610B5D5
:10599000C9B202449342184601D1002003E00478C2
:1059A00001338C42F6D110BD0A44914200F1FF331D
:1059B00000D1704710B511F8014B914203F8014F27
:1059C000F9D110BD70B5466A04460D4676B910206F
:1059D000FFF7D4FF0246606220B96621174B1848D2
:1059E00000F072FCC0E901660660C660666AF36892
:1059F00083B1636ADB6853F82500B8B9012101FA65
:105A000005F6721D2046920000F05EFB60B1C0E911
:105A100001560EE021220421204600F055FB636A66
:105A2000F060DB68002BE4D1002070BD026843F811
:105A300025200023C0E90333F7E700BF956E000877
:105A4000186F000870B5466A05460C4676B91020F6
:105A5000FFF794FF0246686220B98A21084B094883
:105A600000F032FCC0E901660660C6603CB16B6ABA
:105A70006268DB6853F82210216043F8224070BD51
:105A8000956E0008186F00082DE9F04107460C4696
:105A90001E4600200D6901F1140CDCF800300130C5
:105AA00099B202FB01611E0C0B0C02FB063389B29A
:105AB00001EB034185424FEA13464CF8041BECDC32
:105AC0000EB3A368AB4219DC616838460131FFF7B9
:105AD00079FF804628B90246B5210C4B0C4800F0EE
